:020000040800F2
:1000000000500020BD140008FD140008FD14000875
:10001000FD140008FD140008FD1400080000000095
:10002000000000000000000000000000FD140008B7
:10003000FD14000800000000FD140008FD14000875
:10004000FD140008FD140008FD140008FD1400084C
:10005000FD140008FD140008FD140008FD1400083C
:10006000FD140008FD140008FD140008FD1400082C
:10007000FD140008FD140008FD140008FD1400081C
:10008000FD140008FD140008FD140008FD1400080C
:10009000FD140008FD140008FD140008FD140008FC
:1000A000FD140008FD140008FD140008FD140008EC
:1000B000FD14000895140008FD140008FD14000844
:1000C000FD140008FD140008FD140008FD140008CC
:1000D000FD140008590D0008FD140008FD14000867
:0C00E000FD140008FD140008FD140008C9
:1000EC0080F0004002E000BF81F0004142001FBFE1
:1000FC005FEA410392EA030F7FEA226C7FEA236CEA
:10010C006AD04FEA1262D2EB1363C1BFD2184140DE
:10011C0048404140B8BF5B42192B88BF704710F074
:10012C00004F40F4000020F07F4018BF404211F017
:10013C00004F41F4000121F07F4118BF494292EA7F
:10014C00030F3FD0A2F1010241FA03FC10EB0C00AB
:10015C00C3F1200301FA03F100F0004302D5494238
:10016C0060EB4000B0F5000F13D3B0F1807F06D3E5
:10017C0040084FEA310102F10102FE2A51D2B1F1DD
:10018C00004F40EBC25008BF20F0010040EA0300D2
:10019C007047490040EB0000013A28BFB0F5000F52
:1001AC00EDD2B0FA80FCACF1080CB2EB0C0200FA08
:1001BC000CF0AABF00EBC25052421843BCBFD04057
:1001CC001843704792F0000F81F4000106BF80F4D1
:1001DC0000000132013BB5E74FEA41037FEA226C94
:1001EC0018BF7FEA236C21D092EA030F04D092F05F
:1001FC00000F08BF0846704790EA010F1CBF002093
:10020C00704712F07F4F04D1400028BF40F00040EF
:10021C00704712F100723CBF00F50000704700F00F
:10022C00004343F0FE4040F4000070477FEA226236
:10023C0016BF08467FEA23630146420206BF5FEA07
:10024C00412390EA010F40F4800070474FF0000307
:10025C0004E000BF10F0004348BF40425FEA000CCE
:10026C0008BF704743F0964301464FF000001CE076
:10027C0050EA010208BF70474FF000030AE000BFCC
:10028C0050EA010208BF704711F0004302D540420A
:10029C0061EB41015FEA010C02BF8446014600207C
:1002AC0043F0B64308BFA3F18053A3F50003BCFA97
:1002BC008CF2083AA3EBC25310DB01FA02FC634444
:1002CC0000FA02FCC2F12002BCF1004F20FA02F24B
:1002DC0043EB020008BF20F00100704702F120023E
:1002EC0001FA02FCC2F1200250EA4C0021FA02F29F
:1002FC0043EB020008BF20EADC7070474FF0FF0CA4
:10030C001CEAD0521EBF1CEAD15392EA0C0F93EA9E
:10031C000C0F6FD01A4480EA010C400218BF5FEA40
:10032C0041211ED04FF0006343EA501043EA5111B3
:10033C00A0FB01310CF00040B1F5000F3EBF4900AD
:10034C0041EAD3715B0040EA010062F17F02FD2AB1
:10035C001DD8B3F1004F40EBC25008BF20F0010094
:10036C00704790F0000F0CF0004C08BF49024CEAAB
:10037C00502040EA51207F3AC2BFD2F1FF0340EA3D
:10038C00C250704740F400004FF00003013A5DDCAE
:10039C0012F1190FDCBF00F000407047C2F10002EF
:1003AC00410021FA02F1C2F1200200FA02FC5FEADC
:1003BC00310040F1000053EA4C0308BF20EADC7026
:1003CC00704792F0000F00F0004C02BF400010F498
:1003DC00000F013AF9D040EA0C0093F0000F01F045
:1003EC00004C02BF490011F4000F013BF9D041EA67
:1003FC000C018FE70CEAD15392EA0C0F18BF93EA69
:10040C000C0F0AD030F0004C18BF31F0004CD8D192
:10041C0080EA010000F00040704790F0000F17BF19
:10042C0090F0004F084691F0000F91F0004F14D05F
:10043C0092EA0C0F01D142020FD193EA0C0F03D1B7
:10044C004B0218BF084608D180EA010000F00040BA
:10045C0040F0FE4040F40000704740F0FE4040F495
:10046C00400070474FF0FF0C1CEAD0521EBF1CEA34
:10047C00D15392EA0C0F93EA0C0F69D0A2EB030252
:10048C0080EA010C49024FEA402037D04FF08053EC
:10049C0043EA111143EA10130CF000408B4238BFB1
:1004AC005B0042F17D024FF4000C8B4224BF5B1ABF
:1004BC0040EA0C00B3EB510F24BFA3EB510340EA0D
:1004CC005C00B3EB910F24BFA3EB910340EA9C00BB
:1004DC00B3EBD10F24BFA3EBD10340EADC001B012B
:1004EC0018BF5FEA1C1CE0D1FD2A3FF650AF8B42CF
:1004FC0040EBC25008BF20F0010070470CF0004CDC
:10050C004CEA50207F32C2BFD2F1FF0340EAC25006
:10051C00704740F400004FF00003013A37E792F0C7
:10052C00000F00F0004C02BF400010F4000F013A25
:10053C00F9D040EA0C0093F0000F01F0004C02BF20
:10054C00490011F4000F013BF9D041EA0C0195E789
:10055C000CEAD15392EA0C0F08D142027FF47DAF22
:10056C0093EA0C0F7FF470AF084676E793EA0C0F12
:10057C0004D14B023FF44CAF08466EE730F0004C10
:10058C0018BF31F0004CCAD130F000427FF45CAFA0
:10059C0031F000437FF43CAF5FE700BF42000ED266
:1005AC00B2F1FE4F0BD34FF09E03B3EB126209D4A2
:1005BC004FEA002343F0004323FA02F070474FF058
:1005CC000000704712F1610F01D1420202D14FF0CD
:1005DC00FF3070474FF00000704700BF00B583B08C
:1005EC00092000F0FDF800F05BF900F0B1FA4FF4CF
:1005FC00E131482000F0FEFB00BF00F0FFFA03469B
:10060C00002BFAD100F07AFE00F04CFE00F0FAFC60
:10061C0000F0B4FC00F080FC0346009302E0019B68
:10062C0001330193019B002BF9DC0023184603B026
:10063C005DF804FB82B001900091009B23F06043B5
:10064C0023F07F030349019A13438B6000BF02B070
:10065C00704700BF00ED00E084B003468DF8073012
:10066C009DF80730DB4303F007030393039B1B0246
:10067C0003930C4BDB680293029A4FF6FF03134073
:10068C000293029B43F0BF6343F400330293029A3C
:10069C00039B13430293034A029BD36000BF04B035
:1006AC00704700BF00ED00E010B584B0044608466A
:1006BC0011461A4623468DF8073003468DF806304E
:1006CC000B468DF8053013468DF804309DF8043038
:1006DC001846FFF7C1FF9DF807209DF80430C3F1C1
:1006EC00040302FA03F303939DF806209DF80430EB
:1006FC000F2141FA03F313401A46039B1343039350
:10070C00039B03F00F030393154A9DF805305B0917
:10071C00D8B2034652F823309DF8052002F01F0290
:10072C00012101FA02F214460D4A0146234342F814
:10073C0021300B4A9DF80530134493F80033D9B29D
:10074C00039BDBB21B01DAB205489DF805300A4366
:10075C00D2B2034483F8002300BF04B010BD00BF25
:10076C0000E100E008B51C4B00221A611A4B002274
:10077C00DA60194B14225A61174B00229A61164BFE
:10078C000022DA61144B1B68134A43F00103136017
:10079C00114B5A681049114B13404B600E4B1B68A0
:1007AC000D4A23F0847323F4803313600A4B1B68C7
:1007BC00094A23F480231360074B5B68064A23F431
:1007CC00FE035360044B00229A6000214FF000603E
:1007DC00FFF730FF00BF08BD001002400000FFF81B
:1007EC0000B585B003468DF8073000238DF80F3027
:1007FC00FFF7B8FF284B1B68274A43F4803313607C
:10080C0000BF254B1B685B0C002BFAD0224B4FF41E
:10081C0080625A609DF80730023B8DF807301E4B02
:10082C005B689DF80720920411461B4A0B435360EA
:10083C00194B5B68184A43F480335360174B1B68A1
:10084C00164A43F032031360134B1B68124A43F0F1
:10085C008073136000BF104B1B685B0E002BFAD02B
:10086C000D4B5B680C4A43F0020353600AE00A4BE1
:10087C005B689B088DF80F309DF80F3003F0030375
:10088C008DF80F309DF80F30022BF0D100BF00BF58
:10089C0005B05DF804FB00BF0010024000200240D0
:1008AC000C4B0D4A5A600B4B1B680A4B00221A600A
:1008BC000A4B09221A70094B1B789BB21A4652013B
:1008CC00D21A92001344DB009AB2054B1A8000BF77
:1008DC00704700BF10E000E03F190100000000204D
:1008EC000200002084B00190114B1B781946114A6C
:1008FC00019B01FB03F353600E4B00229A600D4BDE
:10090C0001221A600B4B1B680393039B03F001033A
:10091C00002B04D0039B03F48033002BF2D0054B47
:10092C0000221A60034B00229A6000BF04B070478B
:10093C000000002010E000E084B00190114B1B88F7
:10094C001946114A019B01FB03F353600E4B002225
:10095C009A600D4B01221A600B4B1B680393039B8F
:10096C0003F00103002B04D0039B03F48033002B12
:10097C00F2D0054B00221A60034B00229A6000BF94
:10098C0004B070470200002010E000E008B5364BC0
:10099C009B69354A43F008039361334BDB69324A58
:1009AC0043F48043D361314B5B68304AC3F3130388
:1009BC0053602E4B5B682D4A43F03B4343F43003AA
:1009CC0053602A4BDB68294A43F46043D360284ABE
:1009DC00274B128892B21A80254B1B889BB2244A53
:1009EC0043F400739BB21380214B1B889BB2204AAB
:1009FC0043F480739BB213801D4B1B889BB21C4A23
:100A0C0043F004039BB21380194A194B128892B21B
:100A1C001A80174B1B889BB2154A43F002039BB2FA
:100A2C001380134B1B889BB2114A43F001039BB2FA
:100A3C0013800F4B1B889BB20D4A43F018039BB2DB
:100A4C0013800B4A0A4B128892B21A80084B1B88EF
:100A5C009BB2074A43F040039BB21380FF2000F087
:100A6C0033F800BF08BD00BF00100240000C01406D
:100A7C000038004082B003468DF807309DF80730EF
:100A8C0003F007038DF807300E4B1B889BB20D4A01
:100A9C0023F038039BB213800A4B1B889AB29DF843
:100AAC0007309BB2074913439BB20B80054B1B8845
:100ABC009BB2044A43F040039BB2138000BF02B0C8
:100ACC00704700BF0038004084B003468DF80730F3
:100ADC000023ADF80E300DE0BDF80E300133ADF84B
:100AEC000E30BDF80E304FF6FD72934202D9002342
:100AFC00ADF80E30154B1B899BB203F00203002B93
:100B0C00EAD0124B9DF8072092B29A810023ADF8DF
:100B1C000E300DE0BDF80E300133ADF80E30BDF8DF
:100B2C000E304FF6FD72934202D90023ADF80E3011
:100B3C00064B1B899BB203F00103002BEAD0034B3D
:100B4C009B899BB2DBB2184604B07047003800405A
:100B5C0008B5274B9B69264A43F008039361254B44
:100B6C005B68244A23F47F2323F470635360214B86
:100B7C005B68204A43F44C3353601E4B5B681D4A40
:100B8C0043F4006353601B4BDB681A4A43F4E05395
:100B9C00D360FFF7FBFE184B1B889BB2164A23F061
:100BAC0040039BB21380144B1B889BB2124A23F058
:100BBC0002039BB21380104B1B889BB20E4A23F08E
:100BCC0001039BB213800C4B1B889BB20A4A43F067
:100BDC0040039BB21380074BDB68064B0022DA60A4
:100BEC00044BDB68034A43F48053D36000BF08BD59
:100BFC0000100240000C01400038004000B583B0EA
:100C0C001B4A6B4692E803001860043319700820E5
:100C1C00FFF730FF6B4605221946302000F060F8D4
:100C2C006B4605221946102000F024F800238DF89D
:100C3C0007300CE09DF8073008336B4413F8083C80
:100C4C00A52B09D19DF8073001338DF807309DF89D
:100C5C000730042BEED900E000BF9DF80730052BC0
:100C6C0001D0012300E00023184603B05DF804FB1B
:100C7C000015000810B584B0034600918DF80730BC
:100C8C0013468DF80630154B00221A609DF807307C
:100C9C001846FFF719FF03468DF80E3000238DF828
:100CAC000F300DE09DF80F30009AD418FF20FFF79D
:100CBC000BFF034623709DF80F3001338DF80F3076
:100CCC009DF806209DF80F309A42EBD2034B01227F
:100CDC001A609DF80E30184604B010BDB081214248
:100CEC0000B585B0034600918DF8073013468DF89A
:100CFC000630154B00221A609DF807301846FFF796
:100D0C00E3FE03468DF80E3000238DF80F300BE018
:100D1C00009B5A1C00921B781846FFF7D5FE9DF8D5
:100D2C000F3001338DF80F309DF80F209DF80630F1
:100D3C009A42EDD3044B01221A609DF80E301846EE
:100D4C0005B05DF804FB00BFB081214282B0264B98
:100D5C001B889BB203F02003002B42D0224B9B88B4
:100D6C009BB28DF80730214B1B881BB2002B38DB54
:100D7C001E4B1B8803F48043002B11D09DF80730C9
:100D8C000A2B03D0194B00221A802AE0174B1B8820
:100D9C006FEA43436FEA53439AB2144B1A8020E034
:100DAC009DF807300D2B07D1104B1B8843F4804363
:100DBC009AB20E4B1A8014E00C4B1B88C3F30D0334
:100DCC000B499DF80720CA54084B1B8801339AB273
:100DDC00064B1A80054B1B88C72B02D9034B0022EC
:100DEC001A8000BF02B0704700380140CC000020D0
:100DFC000400002010B584B001900091019B424A80
:100E0C0002FB03F31846FFF721FA0446009B1B0173
:100E1C001846FFF71BFA034619462046FFF722FB3C
:100E2C00034603930398FFF7B9FB0346ADF80A306A
:100E3C00BDF80A301846FFF70DFA03461946039819
:100E4C00FFF752F903464FF083411846FFF756FA65
:100E5C0003461846FFF7A2FB0346ADF80830BDF871
:100E6C000A301B01ADF80A30BDF80A20BDF8083075
:100E7C001344ADF80A30254B9B69244A43F0040314
:100E8C009361224B9B69214A43F480439361204B2D
:100E9C005B681F4A23F47F6353601D4B5B681C4ADD
:100EAC0043F0B00353601A4B5B68194A43F4006378
:100EBC005360164BDB68154A43F48043D360134BE5
:100ECC00DB68124A23F48043D360124ABDF80A301F
:100EDC001381104B9B899BB20E4A43F4005343F091
:100EEC000C039BB293810B4B9B899BB2094A43F039
:100EFC0020039BB293810223252203210320FFF7B9
:100F0C00D3FB00BF04B010BD40420F0000100240E4
:100F1C00000801400038014000B583B000238DF873
:100F2C00073000F09DF8522000F03AF900BF00F0B5
:100F3C00D1F80346002BFAD18C2000F031F900BF18
:100F4C0000F0C8F80346002BFAD100F089F85320C2
:100F5C0000F026F900BF00F0BDF80346002BFAD1D3
:100F6C00002000F059F903468DF8073000F092F894
:100F7C009DF80730184603B05DF804FB08B500F087
:100F8C006FF8522000F00CF900BF00F0A3F80346F4
:100F9C00002BFAD1802000F003F900BF00F09AF882
:100FAC000346002BFAD1012000F0FAF800BF00F044
:100FBC0091F80346002BFAD100F06CF800F050F8D1
:100FCC00522000F0EDF800BF00F084F80346002B2F
:100FDC00FAD1852000F0E4F800BF00F07BF803465E
:100FEC00002BFAD1122000F0DBF800BF00F072F8F1
:100FFC000346002BFAD100F04DF80A20FFF79CFCB9
:10100C0000BF08BD08B5144B9B69134A43F0080395
:10101C009361124B1B68114A23F0704313600F4B02
:10102C005B680E4A23F0FF0353600C4B1B680B4AA2
:10103C0043F040531360094B5B68084A43F0330399
:10104C005360064BDB68054A43F4E073D3606420BD
:10105C00FFF772FC00BF08BD00100240000C0140FD
:10106C0008B50A4B01221A60094B01221A600520AF
:10107C00FFF738FC064B00221A600420FFF732FC05
:10108C00024B00221A6000BF08BD00BFA4812142A0
:10109C009C81214208B50D4B00221A600C4B00229A
:1010AC001A600420FFF71EFC084B01221A60022074
:1010BC00FFF718FC064B01221A600520FFF712FC03
:1010CC00024B00221A6000BF08BD00BFA481214260
:1010DC009C81214200B583B000238DF80730134B5F
:1010EC0001221A600220FFF7FDFB114B01221A604E
:1010FC000220FFF7F7FB0CE09DF8073001338DF869
:10110C0007309DF80730FA2B03D9FFF7C3FF0123F3
:10111C0007E0084B1B68002BEED1054B00221A6030
:10112C000023184603B05DF804FB00BF9C812142EC
:10113C00A48121421C81214208B50A4B00221A606D
:10114C00094B00221A600220FFF7CCFB054B012251
:10115C001A600220FFF7C6FB024B00221A6000BF88
:10116C0008BD00BFA48121429C81214208B50A4BD5
:10117C0000221A60094B01221A600220FFF7B2FB11
:10118C00054B01221A600220FFF7ACFB024B002238
:10119C001A6000BF08BD00BFA48121429C8121427E
:1011AC0000B585B003468DF8073000238DF80F305D
:1011BC00174B00221A6000238DF80F301EE09DF8AB
:1011CC000730DB09DAB2134B1A609DF807305B006D
:1011DC008DF807300220FFF785FB0D4B01221A60BA
:1011EC000220FFF77FFB0A4B00221A600220FFF758
:1011FC0079FB9DF80F3001338DF80F309DF80F30CF
:10120C00072BDCD900BF00BF05B05DF804FB00BFA5
:10121C00A48121429C81214200B585B003468DF802
:10122C00073000238DF80F3000238DF80E3000238B
:10123C008DF80F301EE0194B00221A600220FFF7C8
:10124C0051FB164B01221A609DF80E305B008DF895
:10125C000E30134B1B68002B04D09DF80E3001335D
:10126C008DF80E300220FFF73DFB9DF80F30013357
:10127C008DF80F309DF80F30072BDCD99DF8073017
:10128C00002B02D0FFF758FF01E0FFF76FFF9DF82E
:10129C000E30184605B05DF804FB00BFA481214256
:1012AC001C81214208B500F047F8802000F0B0F80E
:1012BC0000BF00F07BF80346002BFAD1022000F0AF
:1012CC00A7F800BF00F072F80346002BFAD11520E6
:1012DC0000F09EF800BF00F069F80346002BFAD12D
:1012EC00002000F095F800BF00F060F80346002BDA
:1012FC00FAD100F03BF800BF08BD00000C4B9B6915
:10130C000B4A43F0080393610A4B1B68094A23F00C
:10131C007F631360074B1B68064A43F04C731360E2
:10132C00044BDB68034A43F06003D36000BF704793
:10133C0000100240000C014008B50A4B01221A6053
:10134C00094B01221A600520FFF7CCFA064B00224C
:10135C001A600420FFF7C6FA024B00221A6000BF85
:10136C0008BD00BF988121429481214208B50D4BE4
:10137C0000221A600C4B00221A600420FFF7B2FA0C
:10138C00084B01221A600220FFF7ACFA064B01222F
:10139C001A600520FFF7A6FA024B00221A6000BF64
:1013AC0008BD00BF988121429481214200B583B0D1
:1013BC0000238DF80730134B01221A600220FFF72F
:1013CC0091FA114B01221A600220FFF78BFA0CE004
:1013DC009DF8073001338DF807309DF80730FA2B54
:1013EC0003D9FFF7C3FF012307E0084B1B68002B51
:1013FC00EED1054B00221A600023184603B05DF8AD
:10140C0004FB00BF94812142988121421481214226
:10141C0000B585B003468DF8073000238DF80F30EA
:10142C00174B00221A6000238DF80F301EE09DF838
:10143C000730DB09DAB2134B1A609DF807305B00FA
:10144C008DF807300220FFF74DFA0D4B01221A6080
:10145C000220FFF747FA0A4B00221A600220FFF71E
:10146C0041FA9DF80F3001338DF80F309DF80F3095
:10147C00072BDCD900BF00BF05B05DF804FB00BF33
:10148C009881214294812142084B1B8A9BB203F024
:10149C000103002B00D0FEE7044B1B8A9BB2034ACE
:1014AC0023F001039BB2138200BF7047000400407D
:1014BC00002103E0094B5B58435004310848094BA9
:1014CC0042189A42F6D3084A02E0002342F8043B41
:1014DC00064B9A42F9D3FFF781F8704708150008BC
:1014EC00000000200000002000000020D0000020A0
:0C14FC00FEE70000A5A5A5A5A5000000C6
:04000005080014BD1E
:00000001FF
